Archive member included to satisfy reference by file (symbol)

/opt/setup/gcc-arm-none-eabi-5_4-2016q2/arm-none-eabi/lib/armv7-m/libm.a(lib_a-w_pow.o)
                              bmp.o (pow)
/opt/setup/gcc-arm-none-eabi-5_4-2016q2/arm-none-eabi/lib/armv7-m/libm.a(lib_a-e_pow.o)
                              /opt/setup/gcc-arm-none-eabi-5_4-2016q2/arm-none-eabi/lib/armv7-m/libm.a(lib_a-w_pow.o) (__ieee754_pow)
/opt/setup/gcc-arm-none-eabi-5_4-2016q2/arm-none-eabi/lib/armv7-m/libm.a(lib_a-e_sqrt.o)
                              /opt/setup/gcc-arm-none-eabi-5_4-2016q2/arm-none-eabi/lib/armv7-m/libm.a(lib_a-e_pow.o) (__ieee754_sqrt)
/opt/setup/gcc-arm-none-eabi-5_4-2016q2/arm-none-eabi/lib/armv7-m/libm.a(lib_a-s_fabs.o)
                              /opt/setup/gcc-arm-none-eabi-5_4-2016q2/arm-none-eabi/lib/armv7-m/libm.a(lib_a-e_pow.o) (fabs)
/opt/setup/gcc-arm-none-eabi-5_4-2016q2/arm-none-eabi/lib/armv7-m/libm.a(lib_a-s_finite.o)
                              /opt/setup/gcc-arm-none-eabi-5_4-2016q2/arm-none-eabi/lib/armv7-m/libm.a(lib_a-w_pow.o) (finite)
/opt/setup/gcc-arm-none-eabi-5_4-2016q2/arm-none-eabi/lib/armv7-m/libm.a(lib_a-s_lib_ver.o)
                              /opt/setup/gcc-arm-none-eabi-5_4-2016q2/arm-none-eabi/lib/armv7-m/libm.a(lib_a-w_pow.o) (__fdlib_version)
/opt/setup/gcc-arm-none-eabi-5_4-2016q2/arm-none-eabi/lib/armv7-m/libm.a(lib_a-s_matherr.o)
                              /opt/setup/gcc-arm-none-eabi-5_4-2016q2/arm-none-eabi/lib/armv7-m/libm.a(lib_a-w_pow.o) (matherr)
/opt/setup/gcc-arm-none-eabi-5_4-2016q2/arm-none-eabi/lib/armv7-m/libm.a(lib_a-s_nan.o)
                              /opt/setup/gcc-arm-none-eabi-5_4-2016q2/arm-none-eabi/lib/armv7-m/libm.a(lib_a-e_pow.o) (nan)
/opt/setup/gcc-arm-none-eabi-5_4-2016q2/arm-none-eabi/lib/armv7-m/libm.a(lib_a-s_rint.o)
                              /opt/setup/gcc-arm-none-eabi-5_4-2016q2/arm-none-eabi/lib/armv7-m/libm.a(lib_a-w_pow.o) (rint)
/opt/setup/gcc-arm-none-eabi-5_4-2016q2/arm-none-eabi/lib/armv7-m/libm.a(lib_a-s_scalbn.o)
                              /opt/setup/gcc-arm-none-eabi-5_4-2016q2/arm-none-eabi/lib/armv7-m/libm.a(lib_a-e_pow.o) (scalbn)
/opt/setup/gcc-arm-none-eabi-5_4-2016q2/arm-none-eabi/lib/armv7-m/libm.a(lib_a-s_copysign.o)
                              /opt/setup/gcc-arm-none-eabi-5_4-2016q2/arm-none-eabi/lib/armv7-m/libm.a(lib_a-s_scalbn.o) (copysign)
/opt/setup/gcc-arm-none-eabi-5_4-2016q2/arm-none-eabi/lib/armv7-m/libc.a(lib_a-errno.o)
                              /opt/setup/gcc-arm-none-eabi-5_4-2016q2/arm-none-eabi/lib/armv7-m/libm.a(lib_a-w_pow.o) (__errno)
/opt/setup/gcc-arm-none-eabi-5_4-2016q2/arm-none-eabi/lib/armv7-m/libc.a(lib_a-exit.o)
                              /opt/setup/gcc-arm-none-eabi-5_4-2016q2/bin/../lib/gcc/arm-none-eabi/5.4.1/../../../../arm-none-eabi/lib/armv7-m/crt0.o (exit)
/opt/setup/gcc-arm-none-eabi-5_4-2016q2/arm-none-eabi/lib/armv7-m/libc.a(lib_a-impure.o)
                              /opt/setup/gcc-arm-none-eabi-5_4-2016q2/arm-none-eabi/lib/armv7-m/libc.a(lib_a-exit.o) (_global_impure_ptr)
/opt/setup/gcc-arm-none-eabi-5_4-2016q2/arm-none-eabi/lib/armv7-m/libc.a(lib_a-init.o)
                              /opt/setup/gcc-arm-none-eabi-5_4-2016q2/bin/../lib/gcc/arm-none-eabi/5.4.1/../../../../arm-none-eabi/lib/armv7-m/crt0.o (__libc_init_array)
/opt/setup/gcc-arm-none-eabi-5_4-2016q2/arm-none-eabi/lib/armv7-m/libc.a(lib_a-memset.o)
                              /opt/setup/gcc-arm-none-eabi-5_4-2016q2/bin/../lib/gcc/arm-none-eabi/5.4.1/../../../../arm-none-eabi/lib/armv7-m/crt0.o (memset)
/opt/setup/gcc-arm-none-eabi-5_4-2016q2/arm-none-eabi/lib/armv7-m/libc.a(lib_a-sprintf.o)
                              main.o (sprintf)
/opt/setup/gcc-arm-none-eabi-5_4-2016q2/arm-none-eabi/lib/armv7-m/libc.a(lib_a-svfprintf.o)
                              /opt/setup/gcc-arm-none-eabi-5_4-2016q2/arm-none-eabi/lib/armv7-m/libc.a(lib_a-sprintf.o) (_svfprintf_r)
/opt/setup/gcc-arm-none-eabi-5_4-2016q2/arm-none-eabi/lib/armv7-m/libc.a(lib_a-__call_atexit.o)
                              /opt/setup/gcc-arm-none-eabi-5_4-2016q2/arm-none-eabi/lib/armv7-m/libc.a(lib_a-exit.o) (__call_exitprocs)
/opt/setup/gcc-arm-none-eabi-5_4-2016q2/arm-none-eabi/lib/armv7-m/libc.a(lib_a-atexit.o)
                              /opt/setup/gcc-arm-none-eabi-5_4-2016q2/arm-none-eabi/lib/armv7-m/libc.a(lib_a-__call_atexit.o) (atexit)
/opt/setup/gcc-arm-none-eabi-5_4-2016q2/arm-none-eabi/lib/armv7-m/libc.a(lib_a-dtoa.o)
                              /opt/setup/gcc-arm-none-eabi-5_4-2016q2/arm-none-eabi/lib/armv7-m/libc.a(lib_a-svfprintf.o) (_dtoa_r)
/opt/setup/gcc-arm-none-eabi-5_4-2016q2/arm-none-eabi/lib/armv7-m/libc.a(lib_a-fini.o)
                              /opt/setup/gcc-arm-none-eabi-5_4-2016q2/arm-none-eabi/lib/armv7-m/libc.a(lib_a-__call_atexit.o) (__libc_fini_array)
/opt/setup/gcc-arm-none-eabi-5_4-2016q2/arm-none-eabi/lib/armv7-m/libc.a(lib_a-locale.o)
                              /opt/setup/gcc-arm-none-eabi-5_4-2016q2/arm-none-eabi/lib/armv7-m/libc.a(lib_a-svfprintf.o) (_localeconv_r)
/opt/setup/gcc-arm-none-eabi-5_4-2016q2/arm-none-eabi/lib/armv7-m/libc.a(lib_a-mallocr.o)
                              /opt/setup/gcc-arm-none-eabi-5_4-2016q2/arm-none-eabi/lib/armv7-m/libc.a(lib_a-svfprintf.o) (_malloc_r)
/opt/setup/gcc-arm-none-eabi-5_4-2016q2/arm-none-eabi/lib/armv7-m/libc.a(lib_a-memchr-stub.o)
                              /opt/setup/gcc-arm-none-eabi-5_4-2016q2/arm-none-eabi/lib/armv7-m/libc.a(lib_a-svfprintf.o) (memchr)
/opt/setup/gcc-arm-none-eabi-5_4-2016q2/arm-none-eabi/lib/armv7-m/libc.a(lib_a-memcpy.o)
                              /opt/setup/gcc-arm-none-eabi-5_4-2016q2/arm-none-eabi/lib/armv7-m/libc.a(lib_a-dtoa.o) (memcpy)
/opt/setup/gcc-arm-none-eabi-5_4-2016q2/arm-none-eabi/lib/armv7-m/libc.a(lib_a-mlock.o)
                              /opt/setup/gcc-arm-none-eabi-5_4-2016q2/arm-none-eabi/lib/armv7-m/libc.a(lib_a-mallocr.o) (__malloc_lock)
/opt/setup/gcc-arm-none-eabi-5_4-2016q2/arm-none-eabi/lib/armv7-m/libc.a(lib_a-mprec.o)
                              /opt/setup/gcc-arm-none-eabi-5_4-2016q2/arm-none-eabi/lib/armv7-m/libc.a(lib_a-dtoa.o) (_Balloc)
/opt/setup/gcc-arm-none-eabi-5_4-2016q2/arm-none-eabi/lib/armv7-m/libc.a(lib_a-sbrkr.o)
                              /opt/setup/gcc-arm-none-eabi-5_4-2016q2/arm-none-eabi/lib/armv7-m/libc.a(lib_a-mallocr.o) (_sbrk_r)
/opt/setup/gcc-arm-none-eabi-5_4-2016q2/arm-none-eabi/lib/armv7-m/libc.a(lib_a-strcmp.o)
                              /opt/setup/gcc-arm-none-eabi-5_4-2016q2/arm-none-eabi/lib/armv7-m/libc.a(lib_a-locale.o) (strcmp)
/opt/setup/gcc-arm-none-eabi-5_4-2016q2/arm-none-eabi/lib/armv7-m/libc.a(lib_a-strlen-stub.o)
                              /opt/setup/gcc-arm-none-eabi-5_4-2016q2/arm-none-eabi/lib/armv7-m/libc.a(lib_a-svfprintf.o) (strlen)
/opt/setup/gcc-arm-none-eabi-5_4-2016q2/arm-none-eabi/lib/armv7-m/libc.a(lib_a-svfiprintf.o)
                              /opt/setup/gcc-arm-none-eabi-5_4-2016q2/arm-none-eabi/lib/armv7-m/libc.a(lib_a-svfprintf.o) (__ssprint_r)
/opt/setup/gcc-arm-none-eabi-5_4-2016q2/arm-none-eabi/lib/armv7-m/libc.a(lib_a-__atexit.o)
                              /opt/setup/gcc-arm-none-eabi-5_4-2016q2/arm-none-eabi/lib/armv7-m/libc.a(lib_a-atexit.o) (__register_exitproc)
/opt/setup/gcc-arm-none-eabi-5_4-2016q2/arm-none-eabi/lib/armv7-m/libc.a(lib_a-callocr.o)
                              /opt/setup/gcc-arm-none-eabi-5_4-2016q2/arm-none-eabi/lib/armv7-m/libc.a(lib_a-mprec.o) (_calloc_r)
/opt/setup/gcc-arm-none-eabi-5_4-2016q2/arm-none-eabi/lib/armv7-m/libc.a(lib_a-freer.o)
                              /opt/setup/gcc-arm-none-eabi-5_4-2016q2/arm-none-eabi/lib/armv7-m/libc.a(lib_a-mallocr.o) (_free_r)
/opt/setup/gcc-arm-none-eabi-5_4-2016q2/arm-none-eabi/lib/armv7-m/libc.a(lib_a-memmove.o)
                              /opt/setup/gcc-arm-none-eabi-5_4-2016q2/arm-none-eabi/lib/armv7-m/libc.a(lib_a-svfiprintf.o) (memmove)
/opt/setup/gcc-arm-none-eabi-5_4-2016q2/arm-none-eabi/lib/armv7-m/libc.a(lib_a-reallocr.o)
                              /opt/setup/gcc-arm-none-eabi-5_4-2016q2/arm-none-eabi/lib/armv7-m/libc.a(lib_a-svfiprintf.o) (_realloc_r)
/opt/setup/gcc-arm-none-eabi-5_4-2016q2/arm-none-eabi/lib/armv7-m/libc.a(lib_a-reent.o)
                              /opt/setup/gcc-arm-none-eabi-5_4-2016q2/arm-none-eabi/lib/armv7-m/libc.a(lib_a-sbrkr.o) (errno)
/opt/setup/gcc-arm-none-eabi-5_4-2016q2/arm-none-eabi/lib/armv7-m/libnosys.a(sbrk.o)
                              /opt/setup/gcc-arm-none-eabi-5_4-2016q2/arm-none-eabi/lib/armv7-m/libc.a(lib_a-sbrkr.o) (_sbrk)
/opt/setup/gcc-arm-none-eabi-5_4-2016q2/bin/../lib/gcc/arm-none-eabi/5.4.1/armv7-m/libgcc.a(_arm_addsubdf3.o)
                              bmp.o (__aeabi_dsub)
/opt/setup/gcc-arm-none-eabi-5_4-2016q2/bin/../lib/gcc/arm-none-eabi/5.4.1/armv7-m/libgcc.a(_arm_muldivdf3.o)
                              bmp.o (__aeabi_dmul)
/opt/setup/gcc-arm-none-eabi-5_4-2016q2/bin/../lib/gcc/arm-none-eabi/5.4.1/armv7-m/libgcc.a(_arm_cmpdf2.o)
                              /opt/setup/gcc-arm-none-eabi-5_4-2016q2/arm-none-eabi/lib/armv7-m/libm.a(lib_a-w_pow.o) (__aeabi_dcmpeq)
/opt/setup/gcc-arm-none-eabi-5_4-2016q2/bin/../lib/gcc/arm-none-eabi/5.4.1/armv7-m/libgcc.a(_arm_unorddf2.o)
                              /opt/setup/gcc-arm-none-eabi-5_4-2016q2/arm-none-eabi/lib/armv7-m/libm.a(lib_a-w_pow.o) (__aeabi_dcmpun)
/opt/setup/gcc-arm-none-eabi-5_4-2016q2/bin/../lib/gcc/arm-none-eabi/5.4.1/armv7-m/libgcc.a(_arm_fixdfsi.o)
                              /opt/setup/gcc-arm-none-eabi-5_4-2016q2/arm-none-eabi/lib/armv7-m/libc.a(lib_a-dtoa.o) (__aeabi_d2iz)
/opt/setup/gcc-arm-none-eabi-5_4-2016q2/bin/../lib/gcc/arm-none-eabi/5.4.1/armv7-m/libgcc.a(_arm_truncdfsf2.o)
                              bmp.o (__aeabi_d2f)
/opt/setup/gcc-arm-none-eabi-5_4-2016q2/bin/../lib/gcc/arm-none-eabi/5.4.1/armv7-m/libgcc.a(_arm_addsubsf3.o)
                              bmp.o (__aeabi_ui2f)
/opt/setup/gcc-arm-none-eabi-5_4-2016q2/bin/../lib/gcc/arm-none-eabi/5.4.1/armv7-m/libgcc.a(_arm_muldivsf3.o)
                              bmp.o (__aeabi_fdiv)
/opt/setup/gcc-arm-none-eabi-5_4-2016q2/bin/../lib/gcc/arm-none-eabi/5.4.1/armv7-m/libgcc.a(_aeabi_ldivmod.o)
                              bmp.o (__aeabi_ldivmod)
/opt/setup/gcc-arm-none-eabi-5_4-2016q2/bin/../lib/gcc/arm-none-eabi/5.4.1/armv7-m/libgcc.a(_aeabi_uldivmod.o)
                              system_LPC17xx.o (__aeabi_uldivmod)
/opt/setup/gcc-arm-none-eabi-5_4-2016q2/bin/../lib/gcc/arm-none-eabi/5.4.1/armv7-m/libgcc.a(_udivmoddi4.o)
                              /opt/setup/gcc-arm-none-eabi-5_4-2016q2/bin/../lib/gcc/arm-none-eabi/5.4.1/armv7-m/libgcc.a(_aeabi_ldivmod.o) (__udivmoddi4)
/opt/setup/gcc-arm-none-eabi-5_4-2016q2/bin/../lib/gcc/arm-none-eabi/5.4.1/armv7-m/libgcc.a(_dvmd_tls.o)
                              /opt/setup/gcc-arm-none-eabi-5_4-2016q2/bin/../lib/gcc/arm-none-eabi/5.4.1/armv7-m/libgcc.a(_aeabi_ldivmod.o) (__aeabi_ldiv0)

Allocating common symbols
Common symbol       size              file

errno               0x4               /opt/setup/gcc-arm-none-eabi-5_4-2016q2/arm-none-eabi/lib/armv7-m/libc.a(lib_a-reent.o)

Discarded input sections

 .text          0x00000000        0x0 /opt/setup/gcc-arm-none-eabi-5_4-2016q2/bin/../lib/gcc/arm-none-eabi/5.4.1/armv7-m/crti.o
 .data          0x00000000        0x0 /opt/setup/gcc-arm-none-eabi-5_4-2016q2/bin/../lib/gcc/arm-none-eabi/5.4.1/armv7-m/crti.o
 .bss           0x00000000        0x0 /opt/setup/gcc-arm-none-eabi-5_4-2016q2/bin/../lib/gcc/arm-none-eabi/5.4.1/armv7-m/crti.o
 .data          0x00000000        0x4 /opt/setup/gcc-arm-none-eabi-5_4-2016q2/bin/../lib/gcc/arm-none-eabi/5.4.1/armv7-m/crtbegin.o
 .text          0x00000000       0x74 /opt/setup/gcc-arm-none-eabi-5_4-2016q2/bin/../lib/gcc/arm-none-eabi/5.4.1/../../../../arm-none-eabi/lib/armv7-m/crt0.o
 .data          0x00000000        0x0 /opt/setup/gcc-arm-none-eabi-5_4-2016q2/bin/../lib/gcc/arm-none-eabi/5.4.1/../../../../arm-none-eabi/lib/armv7-m/crt0.o
 .bss           0x00000000        0x0 /opt/setup/gcc-arm-none-eabi-5_4-2016q2/bin/../lib/gcc/arm-none-eabi/5.4.1/../../../../arm-none-eabi/lib/armv7-m/crt0.o
 .ARM.extab     0x00000000        0x0 /opt/setup/gcc-arm-none-eabi-5_4-2016q2/bin/../lib/gcc/arm-none-eabi/5.4.1/../../../../arm-none-eabi/lib/armv7-m/crt0.o
 .ARM.exidx     0x00000000        0x8 /opt/setup/gcc-arm-none-eabi-5_4-2016q2/bin/../lib/gcc/arm-none-eabi/5.4.1/../../../../arm-none-eabi/lib/armv7-m/crt0.o
 .ARM.attributes
                0x00000000       0x1b /opt/setup/gcc-arm-none-eabi-5_4-2016q2/bin/../lib/gcc/arm-none-eabi/5.4.1/../../../../arm-none-eabi/lib/armv7-m/crt0.o
 .text          0x00000000        0x0 main.o
 .data          0x00000000        0x0 main.o
 .bss           0x00000000        0x0 main.o
 .text          0x00000000        0x0 startup_LPC17xx.o
 .data          0x00000000        0x0 startup_LPC17xx.o
 .bss           0x00000000        0x0 startup_LPC17xx.o
 .text          0x00000000        0x0 system_LPC17xx.o
Memory Configuration

Name             Origin             Length             Attributes
FLASH            0x00002000         0x0007e000         xr
RAM              0x100000c8         0x00007f38         xrw
USB_RAM          0x2007c000         0x00004000         xrw
ETH_RAM          0x20080000         0x00004000         xrw
*default*        0x00000000         0xffffffff

Linker script and memory map

LOAD /opt/setup/gcc-arm-none-eabi-5_4-2016q2/bin/../lib/gcc/arm-none-eabi/5.4.1/armv7-m/crti.o
LOAD /opt/setup/gcc-arm-none-eabi-5_4-2016q2/bin/../lib/gcc/arm-none-eabi/5.4.1/armv7-m/crtbegin.o
LOAD /opt/setup/gcc-arm-none-eabi-5_4-2016q2/bin/../lib/gcc/arm-none-eabi/5.4.1/../../../../arm-none-eabi/lib/armv7-m/crt0.o
LOAD main.o
LOAD startup_LPC17xx.o
LOAD system_LPC17xx.o
LOAD uart.o
LOAD i2c.o
LOAD bmp.o
LOAD /opt/setup/gcc-arm-none-eabi-5_4-2016q2/arm-none-eabi/lib/armv7-m/libstdc++.a
LOAD /opt/setup/gcc-arm-none-eabi-5_4-2016q2/arm-none-eabi/lib/armv7-m/libsupc++.a
LOAD /opt/setup/gcc-arm-none-eabi-5_4-2016q2/arm-none-eabi/lib/armv7-m/libm.a
LOAD /opt/setup/gcc-arm-none-eabi-5_4-2016q2/arm-none-eabi/lib/armv7-m/libc.a
LOAD /opt/setup/gcc-arm-none-eabi-5_4-2016q2/arm-none-eabi/lib/armv7-m/libg.a
LOAD /opt/setup/gcc-arm-none-eabi-5_4-2016q2/arm-none-eabi/lib/armv7-m/libnosys.a
LOAD /opt/setup/gcc-arm-none-eabi-5_4-2016q2/arm-none-eabi/lib/armv7-m/libstdc++.a
LOAD /opt/setup/gcc-arm-none-eabi-5_4-2016q2/arm-none-eabi/lib/armv7-m/libsupc++.a
LOAD /opt/setup/gcc-arm-none-eabi-5_4-2016q2/arm-none-eabi/lib/armv7-m/libm.a
LOAD /opt/setup/gcc-arm-none-eabi-5_4-2016q2/arm-none-eabi/lib/armv7-m/libc.a
LOAD /opt/setup/gcc-arm-none-eabi-5_4-2016q2/arm-none-eabi/lib/armv7-m/libg.a
LOAD /opt/setup/gcc-arm-none-eabi-5_4-2016q2/arm-none-eabi/lib/armv7-m/libnosys.a
START GROUP
LOAD /opt/setup/gcc-arm-none-eabi-5_4-2016q2/bin/../lib/gcc/arm-none-eabi/5.4.1/armv7-m/libgcc.a
LOAD /opt/setup/gcc-arm-none-eabi-5_4-2016q2/arm-none-eabi/lib/armv7-m/libc.a
END GROUP
LOAD /opt/setup/gcc-arm-none-eabi-5_4-2016q2/bin/../lib/gcc/arm-none-eabi/5.4.1/armv7-m/crtend.o
LOAD /opt/setup/gcc-arm-none-eabi-5_4-2016q2/bin/../lib/gcc/arm-none-eabi/5.4.1/armv7-m/crtn.o
START GROUP
LOAD /opt/setup/gcc-arm-none-eabi-5_4-2016q2/bin/../lib/gcc/arm-none-eabi/5.4.1/armv7-m/libgcc.a
LOAD /opt/setup/gcc-arm-none-eabi-5_4-2016q2/arm-none-eabi/lib/armv7-m/libg.a
LOAD /opt/setup/gcc-arm-none-eabi-5_4-2016q2/arm-none-eabi/lib/armv7-m/libc.a
LOAD /opt/setup/gcc-arm-none-eabi-5_4-2016q2/arm-none-eabi/lib/armv7-m/libm.a
LOAD /opt/setup/gcc-arm-none-eabi-5_4-2016q2/arm-none-eabi/lib/armv7-m/libnosys.a
END GROUP

.text           0x00002000     0x7350
 *(.isr_vector)
 .isr_vector    0x00002000       0xc4 startup_LPC17xx.o
                0x00002000                g_pfnVectors
 *(.text*)
 .text          0x000020c4       0x5c /opt/setup/gcc-arm-none-eabi-5_4-2016q2/bin/../lib/gcc/arm-none-eabi/5.4.1/armv7-m/crtbegin.o
 .text.main     0x00002120       0xa4 main.o
                0x00002120                main
 .text.Reset_Handler
                0x000021c4       0x70 startup_LPC17xx.o
                0x000021c4                Reset_Handler
 .text.Default_Handler
                0x00002234        0x8 startup_LPC17xx.o
                0x00002234                TIMER2_IRQHandler
                0x00002234                DebugMon_Handler
                0x00002234                RIT_IRQHandler
                0x00002234                I2C0_IRQHandler
                0x00002234                SysTick_Handler
                0x00002234                PWM1_IRQHandler
                0x00002234                PendSV_Handler
                0x00002234                I2C1_IRQHandler
                0x00002234                EINT2_IRQHandler
                0x00002234                UART1_IRQHandler
                0x00002234                EINT3_IRQHandler
                0x00002234                TIMER3_IRQHandler
                0x00002234                UART0_IRQHandler
                0x00002234                UsageFault_Handler
                0x00002234                PLL0_IRQHandler
                0x00002234                CAN_IRQHandler
                0x00002234                PLL1_IRQHandler
                0x00002234                SSP0_IRQHandler
                0x00002234                I2S_IRQHandler
                0x00002234                I2C2_IRQHandler
                0x00002234                RTC_IRQHandler
                0x00002234                TIMER0_IRQHandler
                0x00002234                SPI_IRQHandler
                0x00002234                EINT1_IRQHandler
                0x00002234                TIMER1_IRQHandler
                0x00002234                UART2_IRQHandler
                0x00002234                Default_Handler
                0x00002234                ADC_IRQHandler
                0x00002234                SSP1_IRQHandler
                0x00002234                USB_IRQHandler
                0x00002234                BOD_IRQHandler
                0x00002234                MemManage_Handler
                0x00002234                WDT_IRQHandler
                0x00002234                SVC_Handler
                0x00002234                QEI_IRQHandler
                0x00002234                EINT0_IRQHandler
                0x00002234                DMA_IRQHandler
                0x00002234                BusFault_Handler
                0x00002234                UART3_IRQHandler
                0x00002234                MCPWM_IRQHandler
                0x00002234                ENET_IRQHandler
 .text.SystemInit
                0x0000223c      0x13c system_LPC17xx.o
                0x0000223c                SystemInit
 .text.sw_delay
                0x00002378       0x40 system_LPC17xx.o
                0x00002378                sw_delay
 .text.uart_init
                0x000023b8       0x6c uart.o
                0x000023b8                uart_init
 .text.uart_putch
                0x00002424       0x30 uart.o
                0x00002424                uart_putch
 .text.uart_puts
                0x00002454       0x38 uart.o
                0x00002454                uart_puts
 .text.i2c_init
                0x0000248c       0x44 i2c.o
                0x0000248c                i2c_init
 .text.i2c_start
                0x000024d0       0x2c i2c.o
                0x000024d0                i2c_start
 .text.i2c_rep_start
                0x000024fc        0xc i2c.o
                0x000024fc                i2c_rep_start
 .text.i2c_stop
                0x00002508       0x18 i2c.o
                0x00002508                i2c_stop
 .text.i2c_send_addr
                0x00002520       0x38 i2c.o
                0x00002520                i2c_send_addr
 .text.i2c_send_data
                0x00002558       0x38 i2c.o
                0x00002558                i2c_send_data
 .text.i2c_recv_ack
                0x00002590       0x38 i2c.o
                0x00002590                i2c_recv_ack
 .text.i2c_recv_nack
                0x000025c8       0x38 i2c.o
                0x000025c8                i2c_recv_nack
 .text.bmp_init
                0x00002600       0x64 bmp.o
                0x00002600                bmp_init
 .text.set_forced_mode
                0x00002664       0x48 bmp.o
                0x00002664                set_forced_mode
 .text.bmp_read
                0x000026ac      0x108 bmp.o
                0x000026ac                bmp_read
 .text.fetch_calib_values
                0x000027b4       0x68 bmp.o
                0x000027b4                fetch_calib_values
 .text.get_all_calib_values
                0x0000281c       0xc8 bmp.o
                0x0000281c                get_all_calib_values
 .text.bmp280_compensate_temp_int32
                0x000028e4       0x78 bmp.o
                0x000028e4                bmp280_compensate_temp_int32
 .text.bmp280_compensate_pressure_int64
                0x0000295c      0x398 bmp.o
                0x0000295c                bmp280_compensate_pressure_int64
 *fill*         0x00002cf4        0x4 
 .text.bmp280_compensate_Altitude_int32
                0x00002cf8       0x78 bmp.o
                0x00002cf8                bmp280_compensate_Altitude_int32
 .text.pow      0x00002d70      0x330 /opt/setup/gcc-arm-none-eabi-5_4-2016q2/arm-none-eabi/lib/armv7-m/libm.a(lib_a-w_pow.o)
                0x00002d70                pow
 .text.__ieee754_pow
                0x000030a0      0xac4 /opt/setup/gcc-arm-none-eabi-5_4-2016q2/arm-none-eabi/lib/armv7-m/libm.a(lib_a-e_pow.o)
                0x000030a0                __ieee754_pow
 .text.__ieee754_sqrt
                0x00003b64      0x188 /opt/setup/gcc-arm-none-eabi-5_4-2016q2/arm-none-eabi/lib/armv7-m/libm.a(lib_a-e_sqrt.o)
                0x00003b64                __ieee754_sqrt
 .text.fabs     0x00003cec        0x8 /opt/setup/gcc-arm-none-eabi-5_4-2016q2/arm-none-eabi/lib/armv7-m/libm.a(lib_a-s_fabs.o)
                0x00003cec                fabs
 .text.finite   0x00003cf4        0xc /opt/setup/gcc-arm-none-eabi-5_4-2016q2/arm-none-eabi/lib/armv7-m/libm.a(lib_a-s_finite.o)
                0x00003cf4                finite
 .text.matherr  0x00003d00        0x4 /opt/setup/gcc-arm-none-eabi-5_4-2016q2/arm-none-eabi/lib/armv7-m/libm.a(lib_a-s_matherr.o)
                0x00003d00                matherr
 .text.nan      0x00003d04        0xc /opt/setup/gcc-arm-none-eabi-5_4-2016q2/arm-none-eabi/lib/armv7-m/libm.a(lib_a-s_nan.o)
                0x00003d04                nan
 .text.rint     0x00003d10      0x120 /opt/setup/gcc-arm-none-eabi-5_4-2016q2/arm-none-eabi/lib/armv7-m/libm.a(lib_a-s_rint.o)
                0x00003d10                rint
 .text.scalbn   0x00003e30       0xe4 /opt/setup/gcc-arm-none-eabi-5_4-2016q2/arm-none-eabi/lib/armv7-m/libm.a(lib_a-s_scalbn.o)
                0x00003e30                scalbn
 .text.copysign
                0x00003f14       0x10 /opt/setup/gcc-arm-none-eabi-5_4-2016q2/arm-none-eabi/lib/armv7-m/libm.a(lib_a-s_copysign.o)
                0x00003f14                copysign
 .text.__errno  0x00003f24        0xc /opt/setup/gcc-arm-none-eabi-5_4-2016q2/arm-none-eabi/lib/armv7-m/libc.a(lib_a-errno.o)
                0x00003f24                __errno
 .text.memset   0x00003f30       0x9c /opt/setup/gcc-arm-none-eabi-5_4-2016q2/arm-none-eabi/lib/armv7-m/libc.a(lib_a-memset.o)
                0x00003f30                memset
 .text.sprintf  0x00003fcc       0x4c /opt/setup/gcc-arm-none-eabi-5_4-2016q2/arm-none-eabi/lib/armv7-m/libc.a(lib_a-sprintf.o)
                0x00003fcc                sprintf
 .text._svfprintf_r
                0x00004018     0x175c /opt/setup/gcc-arm-none-eabi-5_4-2016q2/arm-none-eabi/lib/armv7-m/libc.a(lib_a-svfprintf.o)
                0x00004018                _svfprintf_r
 .text.startup.register_fini
                0x00005774       0x14 /opt/setup/gcc-arm-none-eabi-5_4-2016q2/arm-none-eabi/lib/armv7-m/libc.a(lib_a-__call_atexit.o)
 .text.atexit   0x00005788        0xc /opt/setup/gcc-arm-none-eabi-5_4-2016q2/arm-none-eabi/lib/armv7-m/libc.a(lib_a-atexit.o)
                0x00005788                atexit
 .text.quorem   0x00005794      0x12c /opt/setup/gcc-arm-none-eabi-5_4-2016q2/arm-none-eabi/lib/armv7-m/libc.a(lib_a-dtoa.o)
 .text._dtoa_r  0x000058c0      0xe4c /opt/setup/gcc-arm-none-eabi-5_4-2016q2/arm-none-eabi/lib/armv7-m/libc.a(lib_a-dtoa.o)
                0x000058c0                _dtoa_r
 .text.__libc_fini_array
                0x0000670c       0x28 /opt/setup/gcc-arm-none-eabi-5_4-2016q2/arm-none-eabi/lib/armv7-m/libc.a(lib_a-fini.o)
                0x0000670c                __libc_fini_array
 .text._localeconv_r
                0x00006734        0x8 /opt/setup/gcc-arm-none-eabi-5_4-2016q2/arm-none-eabi/lib/armv7-m/libc.a(lib_a-locale.o)
                0x00006734                _localeconv_r
 .text._malloc_r
                0x0000673c      0x558 /opt/setup/gcc-arm-none-eabi-5_4-2016q2/arm-none-eabi/lib/armv7-m/libc.a(lib_a-mallocr.o)
                0x0000673c                _malloc_r
 .text.memchr   0x00006c94       0x8c /opt/setup/gcc-arm-none-eabi-5_4-2016q2/arm-none-eabi/lib/armv7-m/libc.a(lib_a-memchr-stub.o)
                0x00006c94                memchr
 .text          0x00006d20       0xec /opt/setup/gcc-arm-none-eabi-5_4-2016q2/arm-none-eabi/lib/armv7-m/libc.a(lib_a-memcpy.o)
                0x00006d20                memcpy
 .text.__malloc_lock
                0x00006e0c        0x4 /opt/setup/gcc-arm-none-eabi-5_4-2016q2/arm-none-eabi/lib/armv7-m/libc.a(lib_a-mlock.o)
                0x00006e0c                __malloc_lock
 .text.__malloc_unlock
                0x00006e10        0x4 /opt/setup/gcc-arm-none-eabi-5_4-2016q2/arm-none-eabi/lib/armv7-m/libc.a(lib_a-mlock.o)
                0x00006e10                __malloc_unlock
 .text._Balloc  0x00006e14       0x50 /opt/setup/gcc-arm-none-eabi-5_4-2016q2/arm-none-eabi/lib/armv7-m/libc.a(lib_a-mprec.o)
                0x00006e14                _Balloc
 .text._Bfree   0x00006e64       0x14 /opt/setup/gcc-arm-none-eabi-5_4-2016q2/arm-none-eabi/lib/armv7-m/libc.a(lib_a-mprec.o)
                0x00006e64                _Bfree
 .text.__multadd
                0x00006e78       0x80 /opt/setup/gcc-arm-none-eabi-5_4-2016q2/arm-none-eabi/lib/armv7-m/libc.a(lib_a-mprec.o)
                0x00006e78                __multadd
 .text.__hi0bits
                0x00006ef8       0x40 /opt/setup/gcc-arm-none-eabi-5_4-2016q2/arm-none-eabi/lib/armv7-m/libc.a(lib_a-mprec.o)
                0x00006ef8                __hi0bits
 .text.__lo0bits
                0x00006f38       0x5c /opt/setup/gcc-arm-none-eabi-5_4-2016q2/arm-none-eabi/lib/armv7-m/libc.a(lib_a-mprec.o)
                0x00006f38                __lo0bits
 .text.__i2b    0x00006f94       0x14 /opt/setup/gcc-arm-none-eabi-5_4-2016q2/arm-none-eabi/lib/armv7-m/libc.a(lib_a-mprec.o)
                0x00006f94                __i2b
 .text.__multiply
                0x00006fa8      0x13c /opt/setup/gcc-arm-none-eabi-5_4-2016q2/arm-none-eabi/lib/armv7-m/libc.a(lib_a-mprec.o)
                0x00006fa8                __multiply
 .text.__pow5mult
                0x000070e4       0xa0 /opt/setup/gcc-arm-none-eabi-5_4-2016q2/arm-none-eabi/lib/armv7-m/libc.a(lib_a-mprec.o)
                0x000070e4                __pow5mult
 .text.__lshift
                0x00007184       0xac /opt/setup/gcc-arm-none-eabi-5_4-2016q2/arm-none-eabi/lib/armv7-m/libc.a(lib_a-mprec.o)
                0x00007184                __lshift
 .text.__mcmp   0x00007230       0x40 /opt/setup/gcc-arm-none-eabi-5_4-2016q2/arm-none-eabi/lib/armv7-m/libc.a(lib_a-mprec.o)
                0x00007230                __mcmp
 .text.__mdiff  0x00007270      0x128 /opt/setup/gcc-arm-none-eabi-5_4-2016q2/arm-none-eabi/lib/armv7-m/libc.a(lib_a-mprec.o)
                0x00007270                __mdiff
 .text.__d2b    0x00007398       0xa8 /opt/setup/gcc-arm-none-eabi-5_4-2016q2/arm-none-eabi/lib/armv7-m/libc.a(lib_a-mprec.o)
                0x00007398                __d2b
 .text._sbrk_r  0x00007440       0x24 /opt/setup/gcc-arm-none-eabi-5_4-2016q2/arm-none-eabi/lib/armv7-m/libc.a(lib_a-sbrkr.o)
                0x00007440                _sbrk_r
 .text.strlen   0x00007464       0x5c /opt/setup/gcc-arm-none-eabi-5_4-2016q2/arm-none-eabi/lib/armv7-m/libc.a(lib_a-strlen-stub.o)
                0x00007464                strlen
 .text.__ssprint_r
                0x000074c0      0x100 /opt/setup/gcc-arm-none-eabi-5_4-2016q2/arm-none-eabi/lib/armv7-m/libc.a(lib_a-svfiprintf.o)
                0x000074c0                __ssprint_r
 .text.__register_exitproc
                0x000075c0       0xa4 /opt/setup/gcc-arm-none-eabi-5_4-2016q2/arm-none-eabi/lib/armv7-m/libc.a(lib_a-__atexit.o)
                0x000075c0                __register_exitproc
 .text._calloc_r
                0x00007664       0x60 /opt/setup/gcc-arm-none-eabi-5_4-2016q2/arm-none-eabi/lib/armv7-m/libc.a(lib_a-callocr.o)
                0x00007664                _calloc_r
 .text._malloc_trim_r
                0x000076c4       0x9c /opt/setup/gcc-arm-none-eabi-5_4-2016q2/arm-none-eabi/lib/armv7-m/libc.a(lib_a-freer.o)
                0x000076c4                _malloc_trim_r
 .text._free_r  0x00007760      0x1d0 /opt/setup/gcc-arm-none-eabi-5_4-2016q2/arm-none-eabi/lib/armv7-m/libc.a(lib_a-freer.o)
                0x00007760                _free_r
 .text.memmove  0x00007930       0xc8 /opt/setup/gcc-arm-none-eabi-5_4-2016q2/arm-none-eabi/lib/armv7-m/libc.a(lib_a-memmove.o)
                0x00007930                memmove
 .text._realloc_r
                0x000079f8      0x3d4 /opt/setup/gcc-arm-none-eabi-5_4-2016q2/arm-none-eabi/lib/armv7-m/libc.a(lib_a-reallocr.o)
                0x000079f8                _realloc_r
 .text._sbrk    0x00007dcc       0x1c /opt/setup/gcc-arm-none-eabi-5_4-2016q2/arm-none-eabi/lib/armv7-m/libnosys.a(sbrk.o)
                0x00007dcc                _sbrk
 .text          0x00007de8      0x370 /opt/setup/gcc-arm-none-eabi-5_4-2016q2/bin/../lib/gcc/arm-none-eabi/5.4.1/armv7-m/libgcc.a(_arm_addsubdf3.o)
                0x00007de8                __aeabi_drsub
                0x00007df0                __aeabi_dsub
                0x00007df0                __subdf3
                0x00007df4                __adddf3
                0x00007df4                __aeabi_dadd
                0x0000806c                __aeabi_ui2d
                0x0000806c                __floatunsidf
                0x0000808c                __floatsidf
                0x0000808c                __aeabi_i2d
                0x000080b0                __extendsfdf2
                0x000080b0                __aeabi_f2d
                0x000080ec                __aeabi_ul2d
                0x000080ec                __floatundidf
                0x000080fc                __floatdidf
                0x000080fc                __aeabi_l2d
 .text          0x00008158      0x424 /opt/setup/gcc-arm-none-eabi-5_4-2016q2/bin/../lib/gcc/arm-none-eabi/5.4.1/armv7-m/libgcc.a(_arm_muldivdf3.o)
                0x00008158                __aeabi_dmul
                0x00008158                __muldf3
                0x000083ac                __aeabi_ddiv
                0x000083ac                __divdf3
 .text          0x0000857c      0x110 /opt/setup/gcc-arm-none-eabi-5_4-2016q2/bin/../lib/gcc/arm-none-eabi/5.4.1/armv7-m/libgcc.a(_arm_cmpdf2.o)
                0x0000857c                __gtdf2
                0x0000857c                __gedf2
                0x00008584                __ltdf2
                0x00008584                __ledf2
                0x0000858c                __cmpdf2
                0x0000858c                __eqdf2
                0x0000858c                __nedf2
                0x00008608                __aeabi_cdrcmple
                0x00008618                __aeabi_cdcmple
                0x00008618                __aeabi_cdcmpeq
                0x00008628                __aeabi_dcmpeq
                0x0000863c                __aeabi_dcmplt
                0x00008650                __aeabi_dcmple
                0x00008664                __aeabi_dcmpge
                0x00008678                __aeabi_dcmpgt
 .text          0x0000868c       0x2c /opt/setup/gcc-arm-none-eabi-5_4-2016q2/bin/../lib/gcc/arm-none-eabi/5.4.1/armv7-m/libgcc.a(_arm_unorddf2.o)
                0x0000868c                __aeabi_dcmpun
                0x0000868c                __unorddf2
 .text          0x000086b8       0x50 /opt/setup/gcc-arm-none-eabi-5_4-2016q2/bin/../lib/gcc/arm-none-eabi/5.4.1/armv7-m/libgcc.a(_arm_fixdfsi.o)
                0x000086b8                __fixdfsi
                0x000086b8                __aeabi_d2iz
 .text          0x00008708       0xa0 /opt/setup/gcc-arm-none-eabi-5_4-2016q2/bin/../lib/gcc/arm-none-eabi/5.4.1/armv7-m/libgcc.a(_arm_truncdfsf2.o)
                0x00008708                __aeabi_d2f
                0x00008708                __truncdfsf2
 .text          0x000087a8      0x21c /opt/setup/gcc-arm-none-eabi-5_4-2016q2/bin/../lib/gcc/arm-none-eabi/5.4.1/armv7-m/libgcc.a(_arm_addsubsf3.o)
                0x000087a8                __aeabi_frsub
                0x000087b0                __subsf3
                0x000087b0                __aeabi_fsub
                0x000087b4                __aeabi_fadd
                0x000087b4                __addsf3
                0x00008914                __aeabi_ui2f
                0x00008914                __floatunsisf
                0x0000891c                __aeabi_i2f
                0x0000891c                __floatsisf
                0x00008938                __floatundisf
                0x00008938                __aeabi_ul2f
                0x00008948                __floatdisf
                0x00008948                __aeabi_l2f
 .text          0x000089c4      0x2a0 /opt/setup/gcc-arm-none-eabi-5_4-2016q2/bin/../lib/gcc/arm-none-eabi/5.4.1/armv7-m/libgcc.a(_arm_muldivsf3.o)
                0x000089c4                __mulsf3
                0x000089c4                __aeabi_fmul
                0x00008b2c                __divsf3
                0x00008b2c                __aeabi_fdiv
 .text          0x00008c64       0xa0 /opt/setup/gcc-arm-none-eabi-5_4-2016q2/bin/../lib/gcc/arm-none-eabi/5.4.1/armv7-m/libgcc.a(_aeabi_ldivmod.o)
                0x00008c64                __aeabi_ldivmod
 .text          0x00008d04       0x30 /opt/setup/gcc-arm-none-eabi-5_4-2016q2/bin/../lib/gcc/arm-none-eabi/5.4.1/armv7-m/libgcc.a(_aeabi_uldivmod.o)
                0x00008d04                __aeabi_uldivmod
 .text          0x00008d34      0x2ec /opt/setup/gcc-arm-none-eabi-5_4-2016q2/bin/../lib/gcc/arm-none-eabi/5.4.1/armv7-m/libgcc.a(_udivmoddi4.o)
                0x00008d34                __udivmoddi4
 .text          0x00009020        0x4 /opt/setup/gcc-arm-none-eabi-5_4-2016q2/bin/../lib/gcc/arm-none-eabi/5.4.1/armv7-m/libgcc.a(_dvmd_tls.o)
                0x00009020                __aeabi_ldiv0
                0x00009020                __aeabi_idiv0
 *(.init)
 .init          0x00009024        0x4 /opt/setup/gcc-arm-none-eabi-5_4-2016q2/bin/../lib/gcc/arm-none-eabi/5.4.1/armv7-m/crti.o
                0x00009024                _init
 .init          0x00009028        0x8 /opt/setup/gcc-arm-none-eabi-5_4-2016q2/bin/../lib/gcc/arm-none-eabi/5.4.1/armv7-m/crtn.o
 *(.fini)
 .fini          0x00009030        0x4 /opt/setup/gcc-arm-none-eabi-5_4-2016q2/bin/../lib/gcc/arm-none-eabi/5.4.1/armv7-m/crti.o
                0x00009030                _fini
 .fini          0x00009034        0x8 /opt/setup/gcc-arm-none-eabi-5_4-2016q2/bin/../lib/gcc/arm-none-eabi/5.4.1/armv7-m/crtn.o
 *crtbegin.o(.ctors)
 *crtbegin?.o(.ctors)
 *(EXCLUDE_FILE(*crtend.o *crtend?.o) .ctors)
 *(SORT(.ctors.*))
 *(.ctors)
 *crtbegin.o(.dtors)
 *crtbegin?.o(.dtors)
 *(EXCLUDE_FILE(*crtend.o *crtend?.o) .dtors)
 *(SORT(.dtors.*))
 *(.dtors)
 *(.rodata*)
 .rodata        0x0000903c       0x6b main.o
 *fill*         0x000090a7        0x1 
 .rodata        0x000090a8      0x105 bmp.o
 *fill*         0x000091ad        0x3 
 .rodata.str1.4
                0x000091b0        0x4 /opt/setup/gcc-arm-none-eabi-5_4-2016q2/arm-none-eabi/lib/armv7-m/libm.a(lib_a-w_pow.o)
 .rodata.str1.4
                0x000091b4        0x4 /opt/setup/gcc-arm-none-eabi-5_4-2016q2/arm-none-eabi/lib/armv7-m/libm.a(lib_a-e_pow.o)
                                  0x1 (size before relaxing)
 *fill*         0x000091b4        0x4 
 .rodata.TWO52  0x000091b8       0x10 /opt/setup/gcc-arm-none-eabi-5_4-2016q2/arm-none-eabi/lib/armv7-m/libm.a(lib_a-s_rint.o)
 .rodata.str1.4
                0x000091c8        0x2 /opt/setup/gcc-arm-none-eabi-5_4-2016q2/arm-none-eabi/lib/armv7-m/libc.a(lib_a-impure.o)
 *fill*         0x000091ca        0x2 
 .rodata._global_impure_ptr
                0x000091cc        0x4 /opt/setup/gcc-arm-none-eabi-5_4-2016q2/arm-none-eabi/lib/armv7-m/libc.a(lib_a-impure.o)
                0x000091cc                _global_impure_ptr
 .rodata.blanks.7055
                0x000091d0       0x10 /opt/setup/gcc-arm-none-eabi-5_4-2016q2/arm-none-eabi/lib/armv7-m/libc.a(lib_a-svfprintf.o)
 .rodata.str1.4
                0x000091e0       0x42 /opt/setup/gcc-arm-none-eabi-5_4-2016q2/arm-none-eabi/lib/armv7-m/libc.a(lib_a-svfprintf.o)
 *fill*         0x00009222        0x2 
 .rodata.zeroes.7056
                0x00009224       0x10 /opt/setup/gcc-arm-none-eabi-5_4-2016q2/arm-none-eabi/lib/armv7-m/libc.a(lib_a-svfprintf.o)
 .rodata.str1.4
                0x00009234       0x10 /opt/setup/gcc-arm-none-eabi-5_4-2016q2/arm-none-eabi/lib/armv7-m/libc.a(lib_a-dtoa.o)
                                 0x12 (size before relaxing)
 .rodata.str1.4
                0x00009244        0xc /opt/setup/gcc-arm-none-eabi-5_4-2016q2/arm-none-eabi/lib/armv7-m/libc.a(lib_a-locale.o)
                                 0x12 (size before relaxing)
 .rodata.__mprec_tens
                0x00009250       0xc8 /opt/setup/gcc-arm-none-eabi-5_4-2016q2/arm-none-eabi/lib/armv7-m/libc.a(lib_a-mprec.o)
                0x00009250                __mprec_tens
 .rodata.__mprec_bigtens
                0x00009318       0x28 /opt/setup/gcc-arm-none-eabi-5_4-2016q2/arm-none-eabi/lib/armv7-m/libc.a(lib_a-mprec.o)
                0x00009318                __mprec_bigtens
 .rodata.p05.5396
                0x00009340        0xc /opt/setup/gcc-arm-none-eabi-5_4-2016q2/arm-none-eabi/lib/armv7-m/libc.a(lib_a-mprec.o)
 *(.eh_frame*)
 .eh_frame      0x0000934c        0x0 /opt/setup/gcc-arm-none-eabi-5_4-2016q2/bin/../lib/gcc/arm-none-eabi/5.4.1/armv7-m/crtbegin.o
 .eh_frame      0x0000934c        0x4 /opt/setup/gcc-arm-none-eabi-5_4-2016q2/bin/../lib/gcc/arm-none-eabi/5.4.1/armv7-m/crtend.o

.glue_7         0x00009350        0x0
 .glue_7        0x00009350        0x0 linker stubs

.glue_7t        0x00009350        0x0
 .glue_7t       0x00009350        0x0 linker stubs

.vfp11_veneer   0x00009350        0x0
 .vfp11_veneer  0x00009350        0x0 linker stubs

.v4_bx          0x00009350        0x0
 .v4_bx         0x00009350        0x0 linker stubs

.iplt           0x00009350        0x0
 .iplt          0x00009350        0x0 /opt/setup/gcc-arm-none-eabi-5_4-2016q2/bin/../lib/gcc/arm-none-eabi/5.4.1/armv7-m/crtbegin.o

.ARM.extab
 *(.ARM.extab* .gnu.linkonce.armextab.*)
                0x00009350                __exidx_start = .

.ARM.exidx      0x00009350        0x8
 *(.ARM.exidx* .gnu.linkonce.armexidx.*)
 .ARM.exidx     0x00009350        0x8 /opt/setup/gcc-arm-none-eabi-5_4-2016q2/bin/../lib/gcc/arm-none-eabi/5.4.1/armv7-m/libgcc.a(_udivmoddi4.o)
                0x00009358                __exidx_end = .
                0x00009358                __etext = .
                0x00009358                __sidata = __etext

.rel.dyn        0x00009358        0x0
 .rel.iplt      0x00009358        0x0 /opt/setup/gcc-arm-none-eabi-5_4-2016q2/bin/../lib/gcc/arm-none-eabi/5.4.1/armv7-m/crtbegin.o

.data           0x100000c8      0x888 load address 0x00009358
                0x100000c8                __data_start__ = .
 *(vtable)
 *(.data*)
 .data.__fdlib_version
                0x100000c8        0x1 /opt/setup/gcc-arm-none-eabi-5_4-2016q2/arm-none-eabi/lib/armv7-m/libm.a(lib_a-s_lib_ver.o)
                0x100000c8                __fdlib_version
 *fill*         0x100000c9        0x7 
 .data.impure_data
                0x100000d0      0x428 /opt/setup/gcc-arm-none-eabi-5_4-2016q2/arm-none-eabi/lib/armv7-m/libc.a(lib_a-impure.o)
 .data._impure_ptr
                0x100004f8        0x4 /opt/setup/gcc-arm-none-eabi-5_4-2016q2/arm-none-eabi/lib/armv7-m/libc.a(lib_a-impure.o)
                0x100004f8                _impure_ptr
 .data.lconv    0x100004fc       0x38 /opt/setup/gcc-arm-none-eabi-5_4-2016q2/arm-none-eabi/lib/armv7-m/libc.a(lib_a-locale.o)
 .data.__malloc_av_
                0x10000534      0x408 /opt/setup/gcc-arm-none-eabi-5_4-2016q2/arm-none-eabi/lib/armv7-m/libc.a(lib_a-mallocr.o)
                0x10000534                __malloc_av_
 .data.__malloc_trim_threshold
                0x1000093c        0x4 /opt/setup/gcc-arm-none-eabi-5_4-2016q2/arm-none-eabi/lib/armv7-m/libc.a(lib_a-mallocr.o)
                0x1000093c                __malloc_trim_threshold
 .data.__malloc_sbrk_base
                0x10000940        0x4 /opt/setup/gcc-arm-none-eabi-5_4-2016q2/arm-none-eabi/lib/armv7-m/libc.a(lib_a-mallocr.o)
                0x10000940                __malloc_sbrk_base
                0x10000944                . = ALIGN (0x4)
                0x10000944                PROVIDE (__preinit_array_start, .)
 *(.preinit_array)
                0x10000944                PROVIDE (__preinit_array_end, .)
                0x10000944                . = ALIGN (0x4)
                0x10000944                PROVIDE (__init_array_start, .)
 *(SORT(.init_array.*))
 .init_array.00000
                0x10000944        0x4 /opt/setup/gcc-arm-none-eabi-5_4-2016q2/arm-none-eabi/lib/armv7-m/libc.a(lib_a-__call_atexit.o)
 *(.init_array)
 .init_array    0x10000948        0x4 /opt/setup/gcc-arm-none-eabi-5_4-2016q2/bin/../lib/gcc/arm-none-eabi/5.4.1/armv7-m/crtbegin.o
                0x1000094c                PROVIDE (__init_array_end, .)
                0x1000094c                . = ALIGN (0x4)
                0x1000094c                PROVIDE (__fini_array_start, .)
 *(SORT(.fini_array.*))
 *(.fini_array)
 .fini_array    0x1000094c        0x4 /opt/setup/gcc-arm-none-eabi-5_4-2016q2/bin/../lib/gcc/arm-none-eabi/5.4.1/armv7-m/crtbegin.o
                0x10000950                PROVIDE (__fini_array_end, .)
                0x10000950                . = ALIGN (0x4)
                0x10000950                __data_end__ = .

.jcr            0x10000950        0x0 load address 0x00009be0
 .jcr           0x10000950        0x0 /opt/setup/gcc-arm-none-eabi-5_4-2016q2/bin/../lib/gcc/arm-none-eabi/5.4.1/armv7-m/crtbegin.o

.igot.plt       0x10000950        0x0 load address 0x00009be0
 .igot.plt      0x10000950        0x0 /opt/setup/gcc-arm-none-eabi-5_4-2016q2/bin/../lib/gcc/arm-none-eabi/5.4.1/armv7-m/crtbegin.o

.stackarea      0x10000950      0x800 load address 0x00009be0
 .stackarea     0x10000950      0x800 startup_LPC17xx.o
                0x10000950                pulStack

.bss            0x10001150       0xa4 load address 0x0000a3e0
                0x10001150                __bss_start__ = .
 *(.bss*)
 .bss           0x10001150       0x1c /opt/setup/gcc-arm-none-eabi-5_4-2016q2/bin/../lib/gcc/arm-none-eabi/5.4.1/armv7-m/crtbegin.o
 .bss.pressure  0x1000116c        0x4 main.o
                0x1000116c                pressure
 .bss.temperature
                0x10001170        0x4 main.o
                0x10001170                temperature
 .bss.altitude  0x10001174        0x4 main.o
                0x10001174                altitude
 .bss.string    0x10001178       0x20 main.o
                0x10001178                string
 .bss.calib_values
                0x10001198       0x1c bmp.o
                0x10001198                calib_values
 .bss.t_fine    0x100011b4        0x4 bmp.o
                0x100011b4                t_fine
 .bss.__malloc_max_total_mem
                0x100011b8        0x4 /opt/setup/gcc-arm-none-eabi-5_4-2016q2/arm-none-eabi/lib/armv7-m/libc.a(lib_a-mallocr.o)
                0x100011b8                __malloc_max_total_mem
 .bss.__malloc_max_sbrked_mem
                0x100011bc        0x4 /opt/setup/gcc-arm-none-eabi-5_4-2016q2/arm-none-eabi/lib/armv7-m/libc.a(lib_a-mallocr.o)
                0x100011bc                __malloc_max_sbrked_mem
 .bss.__malloc_top_pad
                0x100011c0        0x4 /opt/setup/gcc-arm-none-eabi-5_4-2016q2/arm-none-eabi/lib/armv7-m/libc.a(lib_a-mallocr.o)
                0x100011c0                __malloc_top_pad
 .bss.__malloc_current_mallinfo
                0x100011c4       0x28 /opt/setup/gcc-arm-none-eabi-5_4-2016q2/arm-none-eabi/lib/armv7-m/libc.a(lib_a-mallocr.o)
                0x100011c4                __malloc_current_mallinfo
 .bss.heap_end.4167
                0x100011ec        0x4 /opt/setup/gcc-arm-none-eabi-5_4-2016q2/arm-none-eabi/lib/armv7-m/libnosys.a(sbrk.o)
 *(COMMON)
 COMMON         0x100011f0        0x4 /opt/setup/gcc-arm-none-eabi-5_4-2016q2/arm-none-eabi/lib/armv7-m/libc.a(lib_a-reent.o)
                0x100011f0                errno
                0x100011f4                __bss_end__ = .

.heap           0x100011f4        0x0
                0x100011f4                __end__ = .
                0x100011f4                end = __end__
 *(.heap*)
                0x100011f4                __HeapLimit = .

.stack_dummy    0x100011f4        0x0
 *(.stack)
                0x10008000                __StackTop = (ORIGIN (RAM) + LENGTH (RAM))
                0x10008000                __StackLimit = (__StackTop - SIZEOF (.stack_dummy))
                0x10008000                PROVIDE (__stack, __StackTop)
                0x00000001                ASSERT ((__StackLimit >= __HeapLimit), region RAM overflowed with stack)
OUTPUT(basic.elf elf32-littlearm)

.ARM.attributes
                0x00000000       0x29
 .ARM.attributes
                0x00000000       0x1d /opt/setup/gcc-arm-none-eabi-5_4-2016q2/bin/../lib/gcc/arm-none-eabi/5.4.1/armv7-m/crti.o
 .ARM.attributes
                0x0000001d       0x2d /opt/setup/gcc-arm-none-eabi-5_4-2016q2/bin/../lib/gcc/arm-none-eabi/5.4.1/armv7-m/crtbegin.o
 .ARM.attributes
                0x0000004a       0x33 main.o
 .ARM.attributes
                0x0000007d       0x33 startup_LPC17xx.o
 .ARM.attributes
                0x000000b0       0x33 system_LPC17xx.o
 .ARM.attributes
                0x000000e3       0x33 uart.o
 .ARM.attributes
                0x00000116       0x33 i2c.o
 .ARM.attributes
                0x00000149       0x33 bmp.o
 .ARM.attributes
                0x0000017c       0x2d /opt/setup/gcc-arm-none-eabi-5_4-2016q2/arm-none-eabi/lib/armv7-m/libm.a(lib_a-w_pow.o)
 .ARM.attributes
                0x000001a9       0x2d /opt/setup/gcc-arm-none-eabi-5_4-2016q2/arm-none-eabi/lib/armv7-m/libm.a(lib_a-e_pow.o)
 .ARM.attributes
                0x000001d6       0x2d /opt/setup/gcc-arm-none-eabi-5_4-2016q2/arm-none-eabi/lib/armv7-m/libm.a(lib_a-e_sqrt.o)
 .ARM.attributes
                0x00000203       0x2d /opt/setup/gcc-arm-none-eabi-5_4-2016q2/arm-none-eabi/lib/armv7-m/libm.a(lib_a-s_fabs.o)
 .ARM.attributes
                0x00000230       0x2d /opt/setup/gcc-arm-none-eabi-5_4-2016q2/arm-none-eabi/lib/armv7-m/libm.a(lib_a-s_finite.o)
 .ARM.attributes
                0x0000025d       0x2d /opt/setup/gcc-arm-none-eabi-5_4-2016q2/arm-none-eabi/lib/armv7-m/libm.a(lib_a-s_lib_ver.o)
 .ARM.attributes
                0x0000028a       0x2d /opt/setup/gcc-arm-none-eabi-5_4-2016q2/arm-none-eabi/lib/armv7-m/libm.a(lib_a-s_matherr.o)
 .ARM.attributes
                0x000002b7       0x2d /opt/setup/gcc-arm-none-eabi-5_4-2016q2/arm-none-eabi/lib/armv7-m/libm.a(lib_a-s_nan.o)
 .ARM.attributes
                0x000002e4       0x2d /opt/setup/gcc-arm-none-eabi-5_4-2016q2/arm-none-eabi/lib/armv7-m/libm.a(lib_a-s_rint.o)
 .ARM.attributes
                0x00000311       0x2d /opt/setup/gcc-arm-none-eabi-5_4-2016q2/arm-none-eabi/lib/armv7-m/libm.a(lib_a-s_scalbn.o)
 .ARM.attributes
                0x0000033e       0x2d /opt/setup/gcc-arm-none-eabi-5_4-2016q2/arm-none-eabi/lib/armv7-m/libm.a(lib_a-s_copysign.o)
 .ARM.attributes
                0x0000036b       0x2d /opt/setup/gcc-arm-none-eabi-5_4-2016q2/arm-none-eabi/lib/armv7-m/libc.a(lib_a-errno.o)
 .ARM.attributes
                0x00000398       0x2d /opt/setup/gcc-arm-none-eabi-5_4-2016q2/arm-none-eabi/lib/armv7-m/libc.a(lib_a-impure.o)
 .ARM.attributes
                0x000003c5       0x2d /opt/setup/gcc-arm-none-eabi-5_4-2016q2/arm-none-eabi/lib/armv7-m/libc.a(lib_a-memset.o)
 .ARM.attributes
                0x000003f2       0x2d /opt/setup/gcc-arm-none-eabi-5_4-2016q2/arm-none-eabi/lib/armv7-m/libc.a(lib_a-sprintf.o)
 .ARM.attributes
                0x0000041f       0x2d /opt/setup/gcc-arm-none-eabi-5_4-2016q2/arm-none-eabi/lib/armv7-m/libc.a(lib_a-svfprintf.o)
 .ARM.attributes
                0x0000044c       0x2d /opt/setup/gcc-arm-none-eabi-5_4-2016q2/arm-none-eabi/lib/armv7-m/libc.a(lib_a-__call_atexit.o)
 .ARM.attributes
                0x00000479       0x2d /opt/setup/gcc-arm-none-eabi-5_4-2016q2/arm-none-eabi/lib/armv7-m/libc.a(lib_a-atexit.o)
 .ARM.attributes
                0x000004a6       0x2d /opt/setup/gcc-arm-none-eabi-5_4-2016q2/arm-none-eabi/lib/armv7-m/libc.a(lib_a-dtoa.o)
 .ARM.attributes
                0x000004d3       0x2d /opt/setup/gcc-arm-none-eabi-5_4-2016q2/arm-none-eabi/lib/armv7-m/libc.a(lib_a-fini.o)
 .ARM.attributes
                0x00000500       0x2d /opt/setup/gcc-arm-none-eabi-5_4-2016q2/arm-none-eabi/lib/armv7-m/libc.a(lib_a-locale.o)
 .ARM.attributes
                0x0000052d       0x2d /opt/setup/gcc-arm-none-eabi-5_4-2016q2/arm-none-eabi/lib/armv7-m/libc.a(lib_a-mallocr.o)
 .ARM.attributes
                0x0000055a       0x2d /opt/setup/gcc-arm-none-eabi-5_4-2016q2/arm-none-eabi/lib/armv7-m/libc.a(lib_a-memchr-stub.o)
 .ARM.attributes
                0x00000587       0x1b /opt/setup/gcc-arm-none-eabi-5_4-2016q2/arm-none-eabi/lib/armv7-m/libc.a(lib_a-memcpy.o)
 .ARM.attributes
                0x000005a2       0x2d /opt/setup/gcc-arm-none-eabi-5_4-2016q2/arm-none-eabi/lib/armv7-m/libc.a(lib_a-mlock.o)
 .ARM.attributes
                0x000005cf       0x2d /opt/setup/gcc-arm-none-eabi-5_4-2016q2/arm-none-eabi/lib/armv7-m/libc.a(lib_a-mprec.o)
 .ARM.attributes
                0x000005fc       0x2d /opt/setup/gcc-arm-none-eabi-5_4-2016q2/arm-none-eabi/lib/armv7-m/libc.a(lib_a-sbrkr.o)
 .ARM.attributes
                0x00000629       0x2d /opt/setup/gcc-arm-none-eabi-5_4-2016q2/arm-none-eabi/lib/armv7-m/libc.a(lib_a-strlen-stub.o)
 .ARM.attributes
                0x00000656       0x2d /opt/setup/gcc-arm-none-eabi-5_4-2016q2/arm-none-eabi/lib/armv7-m/libc.a(lib_a-svfiprintf.o)
 .ARM.attributes
                0x00000683       0x2d /opt/setup/gcc-arm-none-eabi-5_4-2016q2/arm-none-eabi/lib/armv7-m/libc.a(lib_a-__atexit.o)
 .ARM.attributes
                0x000006b0       0x2d /opt/setup/gcc-arm-none-eabi-5_4-2016q2/arm-none-eabi/lib/armv7-m/libc.a(lib_a-callocr.o)
 .ARM.attributes
                0x000006dd       0x2d /opt/setup/gcc-arm-none-eabi-5_4-2016q2/arm-none-eabi/lib/armv7-m/libc.a(lib_a-freer.o)
 .ARM.attributes
                0x0000070a       0x2d /opt/setup/gcc-arm-none-eabi-5_4-2016q2/arm-none-eabi/lib/armv7-m/libc.a(lib_a-memmove.o)
 .ARM.attributes
                0x00000737       0x2d /opt/setup/gcc-arm-none-eabi-5_4-2016q2/arm-none-eabi/lib/armv7-m/libc.a(lib_a-reallocr.o)
 .ARM.attributes
                0x00000764       0x2d /opt/setup/gcc-arm-none-eabi-5_4-2016q2/arm-none-eabi/lib/armv7-m/libc.a(lib_a-reent.o)
 .ARM.attributes
                0x00000791       0x2d /opt/setup/gcc-arm-none-eabi-5_4-2016q2/arm-none-eabi/lib/armv7-m/libnosys.a(sbrk.o)
 .ARM.attributes
                0x000007be       0x1d /opt/setup/gcc-arm-none-eabi-5_4-2016q2/bin/../lib/gcc/arm-none-eabi/5.4.1/armv7-m/libgcc.a(_arm_addsubdf3.o)
 .ARM.attributes
                0x000007db       0x1d /opt/setup/gcc-arm-none-eabi-5_4-2016q2/bin/../lib/gcc/arm-none-eabi/5.4.1/armv7-m/libgcc.a(_arm_muldivdf3.o)
 .ARM.attributes
                0x000007f8       0x1d /opt/setup/gcc-arm-none-eabi-5_4-2016q2/bin/../lib/gcc/arm-none-eabi/5.4.1/armv7-m/libgcc.a(_arm_cmpdf2.o)
 .ARM.attributes
                0x00000815       0x1d /opt/setup/gcc-arm-none-eabi-5_4-2016q2/bin/../lib/gcc/arm-none-eabi/5.4.1/armv7-m/libgcc.a(_arm_unorddf2.o)
 .ARM.attributes
                0x00000832       0x1d /opt/setup/gcc-arm-none-eabi-5_4-2016q2/bin/../lib/gcc/arm-none-eabi/5.4.1/armv7-m/libgcc.a(_arm_fixdfsi.o)
 .ARM.attributes
                0x0000084f       0x1d /opt/setup/gcc-arm-none-eabi-5_4-2016q2/bin/../lib/gcc/arm-none-eabi/5.4.1/armv7-m/libgcc.a(_arm_truncdfsf2.o)
 .ARM.attributes
                0x0000086c       0x1d /opt/setup/gcc-arm-none-eabi-5_4-2016q2/bin/../lib/gcc/arm-none-eabi/5.4.1/armv7-m/libgcc.a(_arm_addsubsf3.o)
 .ARM.attributes
                0x00000889       0x1d /opt/setup/gcc-arm-none-eabi-5_4-2016q2/bin/../lib/gcc/arm-none-eabi/5.4.1/armv7-m/libgcc.a(_arm_muldivsf3.o)
 .ARM.attributes
                0x000008a6       0x1d /opt/setup/gcc-arm-none-eabi-5_4-2016q2/bin/../lib/gcc/arm-none-eabi/5.4.1/armv7-m/libgcc.a(_aeabi_ldivmod.o)
 .ARM.attributes
                0x000008c3       0x1d /opt/setup/gcc-arm-none-eabi-5_4-2016q2/bin/../lib/gcc/arm-none-eabi/5.4.1/armv7-m/libgcc.a(_aeabi_uldivmod.o)
 .ARM.attributes
                0x000008e0       0x2d /opt/setup/gcc-arm-none-eabi-5_4-2016q2/bin/../lib/gcc/arm-none-eabi/5.4.1/armv7-m/libgcc.a(_udivmoddi4.o)
 .ARM.attributes
                0x0000090d       0x1d /opt/setup/gcc-arm-none-eabi-5_4-2016q2/bin/../lib/gcc/arm-none-eabi/5.4.1/armv7-m/libgcc.a(_dvmd_tls.o)
 .ARM.attributes
                0x0000092a       0x2d /opt/setup/gcc-arm-none-eabi-5_4-2016q2/bin/../lib/gcc/arm-none-eabi/5.4.1/armv7-m/crtend.o
 .ARM.attributes
                0x00000957       0x1d /opt/setup/gcc-arm-none-eabi-5_4-2016q2/bin/../lib/gcc/arm-none-eabi/5.4.1/armv7-m/crtn.o

.comment        0x00000000       0x6e
 .comment       0x00000000       0x6e main.o
                                 0x6f (size before relaxing)
 .comment       0x0000006e       0x6f startup_LPC17xx.o
 .comment       0x0000006e       0x6f system_LPC17xx.o
 .comment       0x0000006e       0x6f uart.o
 .comment       0x0000006e       0x6f i2c.o
 .comment       0x0000006e       0x6f bmp.o

.debug_frame    0x00000000      0xb28
 .debug_frame   0x00000000       0x4c /opt/setup/gcc-arm-none-eabi-5_4-2016q2/arm-none-eabi/lib/armv7-m/libm.a(lib_a-w_pow.o)
 .debug_frame   0x0000004c       0x68 /opt/setup/gcc-arm-none-eabi-5_4-2016q2/arm-none-eabi/lib/armv7-m/libm.a(lib_a-e_pow.o)
 .debug_frame   0x000000b4       0x30 /opt/setup/gcc-arm-none-eabi-5_4-2016q2/arm-none-eabi/lib/armv7-m/libm.a(lib_a-e_sqrt.o)
 .debug_frame   0x000000e4       0x20 /opt/setup/gcc-arm-none-eabi-5_4-2016q2/arm-none-eabi/lib/armv7-m/libm.a(lib_a-s_fabs.o)
 .debug_frame   0x00000104       0x20 /opt/setup/gcc-arm-none-eabi-5_4-2016q2/arm-none-eabi/lib/armv7-m/libm.a(lib_a-s_finite.o)
 .debug_frame   0x00000124       0x20 /opt/setup/gcc-arm-none-eabi-5_4-2016q2/arm-none-eabi/lib/armv7-m/libm.a(lib_a-s_matherr.o)
 .debug_frame   0x00000144       0x20 /opt/setup/gcc-arm-none-eabi-5_4-2016q2/arm-none-eabi/lib/armv7-m/libm.a(lib_a-s_nan.o)
 .debug_frame   0x00000164       0x3c /opt/setup/gcc-arm-none-eabi-5_4-2016q2/arm-none-eabi/lib/armv7-m/libm.a(lib_a-s_rint.o)
 .debug_frame   0x000001a0       0x30 /opt/setup/gcc-arm-none-eabi-5_4-2016q2/arm-none-eabi/lib/armv7-m/libm.a(lib_a-s_scalbn.o)
 .debug_frame   0x000001d0       0x20 /opt/setup/gcc-arm-none-eabi-5_4-2016q2/arm-none-eabi/lib/armv7-m/libm.a(lib_a-s_copysign.o)
 .debug_frame   0x000001f0       0x20 /opt/setup/gcc-arm-none-eabi-5_4-2016q2/arm-none-eabi/lib/armv7-m/libc.a(lib_a-errno.o)
 .debug_frame   0x00000210       0x34 /opt/setup/gcc-arm-none-eabi-5_4-2016q2/arm-none-eabi/lib/armv7-m/libc.a(lib_a-memset.o)
 .debug_frame   0x00000244       0x84 /opt/setup/gcc-arm-none-eabi-5_4-2016q2/arm-none-eabi/lib/armv7-m/libc.a(lib_a-sprintf.o)
 .debug_frame   0x000002c8       0x44 /opt/setup/gcc-arm-none-eabi-5_4-2016q2/arm-none-eabi/lib/armv7-m/libc.a(lib_a-svfprintf.o)
 .debug_frame   0x0000030c       0x50 /opt/setup/gcc-arm-none-eabi-5_4-2016q2/arm-none-eabi/lib/armv7-m/libc.a(lib_a-__call_atexit.o)
 .debug_frame   0x0000035c       0x20 /opt/setup/gcc-arm-none-eabi-5_4-2016q2/arm-none-eabi/lib/armv7-m/libc.a(lib_a-atexit.o)
 .debug_frame   0x0000037c       0x84 /opt/setup/gcc-arm-none-eabi-5_4-2016q2/arm-none-eabi/lib/armv7-m/libc.a(lib_a-dtoa.o)
 .debug_frame   0x00000400       0x34 /opt/setup/gcc-arm-none-eabi-5_4-2016q2/arm-none-eabi/lib/armv7-m/libc.a(lib_a-fini.o)
 .debug_frame   0x00000434       0x9c /opt/setup/gcc-arm-none-eabi-5_4-2016q2/arm-none-eabi/lib/armv7-m/libc.a(lib_a-locale.o)
 .debug_frame   0x000004d0       0x54 /opt/setup/gcc-arm-none-eabi-5_4-2016q2/arm-none-eabi/lib/armv7-m/libc.a(lib_a-mallocr.o)
 .debug_frame   0x00000524       0x34 /opt/setup/gcc-arm-none-eabi-5_4-2016q2/arm-none-eabi/lib/armv7-m/libc.a(lib_a-memchr-stub.o)
 .debug_frame   0x00000558       0x30 /opt/setup/gcc-arm-none-eabi-5_4-2016q2/arm-none-eabi/lib/armv7-m/libc.a(lib_a-mlock.o)
 .debug_frame   0x00000588      0x264 /opt/setup/gcc-arm-none-eabi-5_4-2016q2/arm-none-eabi/lib/armv7-m/libc.a(lib_a-mprec.o)
 .debug_frame   0x000007ec       0x2c /opt/setup/gcc-arm-none-eabi-5_4-2016q2/arm-none-eabi/lib/armv7-m/libc.a(lib_a-sbrkr.o)
 .debug_frame   0x00000818       0x20 /opt/setup/gcc-arm-none-eabi-5_4-2016q2/arm-none-eabi/lib/armv7-m/libc.a(lib_a-strlen-stub.o)
 .debug_frame   0x00000838       0x78 /opt/setup/gcc-arm-none-eabi-5_4-2016q2/arm-none-eabi/lib/armv7-m/libc.a(lib_a-svfiprintf.o)
 .debug_frame   0x000008b0       0x34 /opt/setup/gcc-arm-none-eabi-5_4-2016q2/arm-none-eabi/lib/armv7-m/libc.a(lib_a-__atexit.o)
 .debug_frame   0x000008e4       0x28 /opt/setup/gcc-arm-none-eabi-5_4-2016q2/arm-none-eabi/lib/armv7-m/libc.a(lib_a-callocr.o)
 .debug_frame   0x0000090c       0x74 /opt/setup/gcc-arm-none-eabi-5_4-2016q2/arm-none-eabi/lib/armv7-m/libc.a(lib_a-freer.o)
 .debug_frame   0x00000980       0x30 /opt/setup/gcc-arm-none-eabi-5_4-2016q2/arm-none-eabi/lib/armv7-m/libc.a(lib_a-memmove.o)
 .debug_frame   0x000009b0       0x58 /opt/setup/gcc-arm-none-eabi-5_4-2016q2/arm-none-eabi/lib/armv7-m/libc.a(lib_a-reallocr.o)
 .debug_frame   0x00000a08       0x58 /opt/setup/gcc-arm-none-eabi-5_4-2016q2/arm-none-eabi/lib/armv7-m/libc.a(lib_a-reent.o)
 .debug_frame   0x00000a60       0x20 /opt/setup/gcc-arm-none-eabi-5_4-2016q2/arm-none-eabi/lib/armv7-m/libnosys.a(sbrk.o)
 .debug_frame   0x00000a80       0x44 /opt/setup/gcc-arm-none-eabi-5_4-2016q2/bin/../lib/gcc/arm-none-eabi/5.4.1/armv7-m/libgcc.a(_aeabi_ldivmod.o)
 .debug_frame   0x00000ac4       0x2c /opt/setup/gcc-arm-none-eabi-5_4-2016q2/bin/../lib/gcc/arm-none-eabi/5.4.1/armv7-m/libgcc.a(_aeabi_uldivmod.o)
 .debug_frame   0x00000af0       0x38 /opt/setup/gcc-arm-none-eabi-5_4-2016q2/bin/../lib/gcc/arm-none-eabi/5.4.1/armv7-m/libgcc.a(_udivmoddi4.o)
